:020000041C00DE
:1040000080B500F0BDF903F087F901F07BFF0A48A5
:104010000A4901600A480B4901600B480B490160DD
:104020000B480C4901600C480C4901600CA0BDE82C
:10403000804003F025BA00BF944441208145001C14
:10404000244441209D40001C98444120F15B001C09
:10405000804441203572001C2C4441207940001CD2
:10406000506174636820686F6F6B20696E73746150
:104070006C6C2E2E0A00000080B5012803D020B9F8
:104080000549002001E00349012003F0FEF900206A
:1040900080BD00BF5545001CA143001C032804BF80
:1040A000094870473C2804BF0A487047172804BFD6
:1040B00007487047182804BF044870470B2814BFEE
:1040C00000200548704700BFF879001CB47A001C36
:1040D000347A001C287A001C047A001C80B502F097
:1040E00091F803F0D7F90948016841F48071016043
:1040F000016841F400710160016841F48061016070
:10410000016841F40061016080BD00BF00040950F6
:1041100080B50D4951F8200098B1D0F8FC0080B16D
:10412000C079402807D2782101EA5000094921FAD4
:1041300000F0C0B280BD0548054940F2F52203F009
:10414000AEF9002080BD00BF98474120407A001C96
:10415000707A001C0000010170B5194A02EB800260
:10416000D2F81C5155B3174A95F8333010FB0210A2
:10417000964995F83120B1F84010033222F003023D
:10418000401A95F8301002FB1100D91D21F00301EF
:10419000043890FBF1F0C1B2490051FA80F603F007
:1041A00083F90446E86A00EB860105F1140003F088
:1041B00080F92046BDE8704003F080B970BD00BFB3
:1041C000444B412090F7FFFF80B503F07CF9C0B26B
:1041D00080BD00007FB5E94801680720884702A834
:1041E00003F076F90C4D00266C46286888B181688A
:1041F000029A891A00290CDCD0E9001229600660B5
:104200009047204603F064F9DDE90001CDE90201A1
:10421000EBE703F062F97FBDA04C4120B0B55F4CE5
:10422000A07850B12078052809D30025084621F848
:10423000065C03F057F9012003E00020B0BD451CE7
:1042400000202570B0BD00BFBCB54FF685400C46C0
:10425000834214D04FF68640834222D04FF68A40E4
:1042600083422DD14FF4885000214FF68A4201231A
:1042700003F03DF905462078B8B3122060E04FF412
:10428000885000214FF685420123002503F02FF9C5
:104290002178424A02EB81012268C1F801200570B1
:1042A00050E04FF4885000214FF68642012303F07E
:1042B0001EF90546E17894F9000002F0EFF93FE0BD
:1042C00025490020B0F5847F3ED00D5A08309D422C
:1042D000F8D1084450F804CCBCF1000F34D0184693
:1042E000214602B0BDE8B04060476078022815D092
:1042F00001281AD00028C0D10620144C0DF1070166
:104300008DF807001248224603680120984788B1BB
:10431000104881880068A18020600BE0E0880B498C
:104320008880D4F80200086004E00848017881F031
:1043300055010170054800F1190103F0DDF8002076
:104340002870284603F0CEF80020BCBDD85C412080
:10435000DC474120B0A20500C4A3050041F20511CD
:10436000054A41F209138842044918BF00229842C5
:1043700018BF1146084670474942001C1D42001CE8
:10438000064800210022042A05D000EB82030132F6
:10439000C3F80110F7E70021017070471C4041206D
:1043A00080B503F0AEF80120BDE8804003F0AEB860
:1043B000064A00EB4000D28C02EB4010044A835ABC
:1043C00023F0FF0319448152704700BFAC574120CE
:1043D0001480412004493028087004BF0448704705
:1043E0000249022203F097B81C42412014B505008F
:1043F000207A001C80B50A464FF4885000210A2319
:1044000003F075F80C2101710449C0F80610044945
:10441000016003F067F8002080BD00BF4C0A7602FF
:10442000000C0002F8B510460C4603F079F8192884
:1044300016D8012101FA00F01449084210D0271DB6
:1044400003F032F80546607800F00F00461E398808
:10445000F0B203F06AF8284603F030F80020F8BD07
:1044600034F8041F14F8030C00F00F00461EF5B2D8
:10447000284603F05FF80146284603F060F800285C
:10448000ECD003F011F805462746E0E72100C00311
:1044900070B540F6FE708D0B14460E0201EA000363
:1044A000B5FA85F200200A2B38BF012052090240DC
:1044B0004FF0FF001CBF301DFB220126B6EB913FE1
:1044C0000AD02DB9802B03D140F2FD32012006E045
:1044D00081B2FF2903D104E040F2FD320220A24262
:1044E00001D2002070BD4FF0FF3151FA80F1022956
:1044F00002D203F029F804E0C0B2042805D103F089
:1045000028F840B10D49084470BD0DA00DA140F23E
:10451000091202F0C4FF41F2021000211A22012305
:10452000012502F0E4FF057002F0DCFF20460121C6
:1045300003F014F8064981F8565070BD0080412000
:10454000415353006863695F70617463682E630050
:104550001859412010B5084C206803F004F830B118
:1045600006480168012088470020206010BDBDE892
:10457000104002F0FDBF00BF1465412030444120CF
:10458000C9B2062909D8DFE801F0040608080A08BC
:104590000C0001F04FBC00F0A3BA0020704700F0FF
:1045A000A5BFFFF7DBBE0000F8B507460948154672
:1045B0000E461C46294602684FF4C4609047280AFC
:1045C00001F07CFB384631462A46234602F0D5FFEF
:1045D0000020F8BD5044412010B50C881CB1BDE846
:1045E000104002F0CFBF002010BD0000F8B5044617
:1045F0001D48458825F0FF00B0F5807F29D11B4874
:104600000068C07F04282ED102F04EFF21780746B3
:10461000002002F0BCFF0646384602F04FFF16B3FA
:10462000B04822786168304402F0B6FF48F20100D9
:104630000022062380EA052081B241F2071002F031
:1046400056FF2178868005808170BDE8F84002F031
:10465000A8BFA74A284621464FF4657301B0BDE8BC
:10466000F04002F0A3BFF8BDC44741207847412085
:104670002DE9F04385B004464148005D1638042812
:104680007AD3B4480D46012150F8246000204F2809
:1046900014D006EBD00200F0060392F83C22DA4078
:1046A00002F00302032A07D1C20800F00707AB5C3F
:1046B00001FA07F7BB43AB540130E8E7284602F0A4
:1046C0007AFF06F50A7829460A22404602F078FF6A
:1046D000002851D096F83C00022813D100200DF19B
:1046E00012010DF11102ADF812008DF811002046F3
:1046F00002F06BFF9DF81100BDF81210063000FBB0
:1047000001F705E0204602F065FF00EB400047009E
:1047100002F065FF814601A8214602F065FF642F83
:1047200098BF642709EB470001990844C0F35A0772
:10473000204600F07FFA28B120020821013002F063
:1047400058FF19E0781C01222B464FF0010920F098
:1047500001072046394602F051FF68B94046294614
:104760000A2202F019FF96F8363020463946012217
:1047700002F049FF86F84C9205B0BDE8F08300BF17
:10478000D05C41201CB504467248332250F8210009
:1047900090F8360062F35F008DF80400C8B201A9FA
:1047A00002F036FF204602F038FF2046112102F0C9
:1047B00039FF1CBD2DE9F0410E4666490746100A37
:1047C0009846154651F82040B4B1307800F0FE000C
:1047D0007C2811D194F8B70270B9D4F8540258B1BA
:1047E00002F025FF00200121C4F854024FF431707B
:1047F00002F0B4FEC4F850023CB1384631462A46B5
:104800004346BDE8F04102F017BF0020BDE8F0814B
:10481000B0B5504D140A55F824401CB1BDE8B04065
:1048200002F00FBF0020B0BD2DE9F047074610464B
:104830001D4614460E4602F073FE052834D130881A
:10484000284F4FEA142AC55DC15DC11991F8019046
:10485000254951F82A8002F0F9FE30886E08324668
:10486000013080B2C35D802000EB1421192002F0DA
:10487000F2FE0320B0EB550F1DD03C2E20D07F2E32
:1048800021D1B9F1010F16D0B9F1110F1BD198F850
:104890004F0228B9914915A040F24A3202F0FFFDBB
:1048A000002088F84F020EE03846314622462B465B
:1048B00002F0D6FE07E02046314602F0D6FE02E0C6
:1048C000504602F0D7FE01F049FB38B104460079AA
:1048D000611D00F0B1F8204602F0A9FE0020BDE8FD
:1048E000F08700BF00804120605C412041535300AD
:1048F000657A001CB0B51749100A144651F82050CB
:10490000104602F00DFE19280CD8012101FA00F022
:104910001149084201D00020B0BD10F0300F01D085
:104920000220B0BD012085F8440095F83C00022823
:1049300003D1204602F0A3FEF2E795F83710204697
:1049400002F0A2FE0028EBD095F83710204602F0C6
:1049500050FEE0E7605C41200100C0032DE9F84310
:10496000074610461C4615460E4602F0D9FDA0F13A
:104970001101052918D301280DD002F095FD8046BC
:104980000B48143002F085FE8146404602F096FD49
:10499000B9F10A0F08D8384631462A46234601B0F5
:1049A000BDE8F04302F07ABE0020BDE8F88300BF06
:1049B000205B4120F8B5074610461C4615460E46BA
:1049C00002F0AEFD352807D1307828B940F20260F8
:1049D00029462A4602F067FE384631462A462346D3
:1049E00001B0BDE8F04002F063BE000010B5014622
:1049F000007800B110BD0E4C1422204602F0CCFD10
:104A00000C49086810B1012280F822204968002969
:104A1000F0D0807F0028EDD191F85500E072022897
:104A200014BF4FF01E104FF00A10C4F80E0010BD56
:104A3000C4474120784741207CB50C46054602F02A
:104A40003CFEF0B1064614212078ADF806107F2117
:104A5000B1EB500F07BF60781E4940081C4900EBBE
:104A6000400001EB8000406888B100900DF1060223
:104A700020462146142302F025FE80B1BDF8061021
:104A800007E028462146BDE87C4001F075BA0420C5
:104A90001421124A40F2B12302F088FD7CBDB08897
:104AA0000D49BDF806200844214602F075FD9DF829
:104AB00006003146B071284602F009FE9DF8062036
:104AC00005F180011720234602F006FE7CBD00BFE1
:104AD000C0C90500E4CC050000804120657A001CB7
:104AE000A0F21E610D290BD81148DFE801F007156F
:104AF0001517161915151B1D1515151F0F4870478D
:104B000040F20161884204BF0E48704741F207112C
:104B1000884204BF0E48704700207047084870471D
:104B20000A48704708487047024870470248704773
:104B30002948001CB549001C5D49001CF548001CB3
:104B40001148001CB547001CA945001CD945001C94
:104B50002544001C70B50446E44850F8245065B163
:104B600016290AD195F8B100032806D195F8B000AE
:104B7000012802D195F8B900B0B31E48427A012A43
:104B80000AD1807A884218BF002805D1D64A20462B
:104B900040F2A73302F00AFD1DB12846002102F0C1
:104BA000A0FD204601F0DEFA204601F0B1F902F046
:104BB0007BFC064695F8F50030B1002085F8F5003D
:104BC0004FF4004002F092FD0025032D07D8204647
:104BD00002F091FD18B102F093FD0135F5E7304682
:104BE00002F06CFC012070BD022085F8B0000020AE
:104BF00070BD00BF1D40412000F026B810B5CCB2FA
:104C0000022C07D3B84B114620461A4640F2715386
:104C100002F0CCFCE84850F8240008B1002010BD98
:104C2000B14A2046002140F2765302F06EFD012089
:104C300010BD00BFF14951F8200010B190F8AF004D
:104C40007047FF20704700BF70B5014690F8AE0076
:104C500091F8BF20F2B191F8BD203D4C02EB40022B
:104C6000D3B25B0053FA82F3554A528D02EB8305AF
:104C70002544EE881EBBAD880DB391F8BB10F1B191
:104C800099002143895A01F078011839B1FA81F16C
:104C9000490915E0D1F8FC1089B10B49096889036D
:104CA0004FF001010CD500EB4002294B43EA4212C0
:104CB000434BDB8C1A44928821EAD22100E0012187
:104CC000BDE8704001F062BAD4040950FFF7BCBFE0
:104CD0002DE9F04F85B01E4C374EDFF8B8899B4662
:104CE0008A4607460025049204F10209032D18D8CC
:104CF000384602F000FDA0B196F82110B8F828005F
:104D000044EA0112125A520707D1090141EA090285
:104D1000125A02F07802102A07D002F0F1FC013595
:104D2000E4E7002005B0BDE8F08F04F10A0200239B
:104D300011430E9A085A0021CDF800B0CDE90121A7
:104D4000049A514602F0E6FC02F0DAFC0120E9E7A1
:104D500002804120B0B51749097851B3B44DB34929
:104D6000696032B302F0C7FC18B3D648134990F813
:104D7000210041EA0010D449098D405A00F0780121
:104D80006868026883689A429ABF426801320022CA
:104D90004260202902D1C1688A4201D2002401E088
:104DA000012441602878844203D0204601F0BAF9FA
:104DB0002C70B0BD06404120D85C412004804120C9
:104DC000AC5741202DE9F0410446FFF73DFF002C90
:104DD00055D094F8AF00012853D1E06FD4F8C81033
:104DE00081423AD06168D4F88460B4F89680081A99
:104DF00020F0704702F093FC054694F8AE0002F0F4
:104E000093FC08B1142001E094F8B20050FA85F048
:104E100040F27121784348431C49B0FBF1F0A8EB04
:104E2000000140000AB2B2F1FF3F05DC721C01F242
:104E3000712122F07046F5E7D4F8D0108A1B711A60
:104E400022F0704221F07041B2F1006F88BF4A42F7
:104E5000042A05D3E06FC4F8C800D4F8CC0000E001
:104E6000343040F24C4188420BD90120B4F8E05074
:104E7000A4F8E000204602F05CFCA4F8E050BDE895
:104E8000F0812046BDE8F04102F053BC40420F00E3
:104E90006C4951F8200050B190F8F510012906D165
:104EA000002180F8F5104FF4004002F01FBC70475D
:104EB00010B5CCB2022C07D3F74B114620461A4648
:104EC00040F2615302F072FB5E4850F8240008B1D2
:104ED000002010BDF04A2046002140F2665302F047
:104EE00014FC012010BD00BF707A001C98474120BF
:104EF000B0B5544951F82040BCB3E06FD4F8D41099
:104F00000A1A401A22F0704520F07040B5F1006F87
:104F100088BF454294F8EE10B4F8DC00002908BFC1
:104F20000121484300EB400085420BDA94F8F5007C
:104F300001280ED1002084F8F5004FF4004002F063
:104F4000D5FB06E0012084F8F5004FF4004002F0A4
:104F5000F5FB012D09DBA90AA07E01EBC10150FA86
:104F600081F0FF2828BFFF20A076B0BDF8B51C4611
:104F700015460E46074602F097FA324951F82710B7
:104F8000A1B191F8B1200C27012A10D191F8AF10EE
:104F900045EA0603069A234300294FF00C0108BF97
:104FA0004FF0FF311A4308BF0F4600E00C2702F014
:104FB00085FAF8B2F8BD00BF9847412080B501F0EE
:104FC000D1F8002080BD000080B50C4951F82000C8
:104FD000D0F8FC00C079402805D23C2101EA9000BD
:104FE00009A1085806E00648064940F2C25202F0FC
:104FF00056FA0120BDE8804001F0FCBD98474120F1
:10500000407A001C707A001C0100000001000000C2
:10501000000000000000000004486021C160044955
:10502000486080218160002141607047E02708507E
:1050300014404120034951F82000002818BF0120E6
:10504000704700BF9847412010B50024032C07D8B3
:10505000022002F050FB18B102F052FB0134F5E7D8
:1050600010BD00F08DBE00002DE9F0471348DFF8B9
:105070005480DFF82096046811488246861C94F814
:10508000390002F038FBB0B198F82100B9F82820B7
:105090004AEA001146EA0010895A875A8D0702F041
:1050A0002FFB002DEBD107F07800082804BF01206A
:1050B000BDE8F087E3E70020BDE8F087085D412008
:1050C00002804120D85C4120AC5741202DE9F04FAF
:1050D00085B00446A04850F82470002F00F0D78017
:1050E00097F85B0028B16B486B4940F2D14202F05F
:1050F000D6F907F15C0002F026FB8046204600212D
:1051000002F026FB8446834804944FEA441B634B19
:10511000634D00F1080950F80B6059F80B4097F8FF
:10512000591081F00101B1EBD67F0DD100EB0B01DD
:105130009A461223240C51F80C2F039353464FEA3E
:10514000124E4FF0F85208E000EB0B0110234FF421
:10515000F85251F80CEF03932B4600EB0B0AB8F111
:10516000000FDAF8040002905BF8090000EA03007F
:1051700040EA02004BF80900086800EA0300474BC8
:10518000086021D0B8F8040081070ED04148424998
:1051900040F20452CDE9008CF04602F080F900980C
:1051A000DDF804C0C6463D4B80882946B6F1FF3F76
:1051B0004FEA9000C8BF194659F80B20C8BF000439
:1051C0001140084349F80B00DDF81080A400BCF141
:1051D000000F1FD0BCF8040081070DD02D482E49C8
:1051E0004FF4A262A946E346754602F058F9BBF8AF
:1051F0000400AE46294B4D46B6F1FF3FC8BF1D46E1
:10520000DAF80C104FEA9000C8BF000429400843A8
:10521000CAF80C00A5B24FEA8E06ADB1B5F5F84F4D
:1052200012D097F85600FF2201230002013081B20C
:105230004FF4C66002F05BF980F8008002F0B1F92B
:105240004046294602F071F9300420D0DDE9021011
:10525000FF22062321FA00F000F0030497F856001D
:105260000002013081B240F22F6002F040F997F85D
:10527000702097F84010068080F80480C4700132D6
:105280005143817005B0BDE8F04F02F08AB905B016
:10529000BDE8F08F407A001C707A001CFFFF00C050
:1052A00000C0FFFF2C4951F8200010B1002102F08E
:1052B00018BA704780B52849096859B140B190F8CB
:1052C0004E1090F85600023918BF012100F05EFF21
:1052D000012080BD002080BDC1F307111E4840F2AF
:1052E000FD1250F82100490190F8520002EB4000F5
:1052F000084AC0F347001F2828BF1F205358C3F394
:105300000423834205D08B5823F4F85343EA00204A
:10531000885070471006095070B514460E4602F0CA
:10532000C3F805460C4850F8260028B1002102F0C9
:10533000D8F9304602F011FA084809490068884255
:1053400004D16078022804BF03206070284602F070
:10535000B5F8002070BD00BF90474120A0FF41205C
:10536000A5A55A5A70B514460D46064600F0E4FA53
:1053700008B12A2004E030462946224602F0F2F91C
:10538000C0B270BD2DE9F843814688880D4640F6CD
:105390007A432026811F994279D8E9888B087C2B93
:1053A00075D82B8940F67644A3F10A07A7426ED838
:1053B00000EB800001314008484303EB83014900C2
:1053C000814201D2202662E03E4850F82900B0F820
:1053D0009600C0075AD1688947F6FF71101A80B24B
:1053E000884201D2282652E04846002102F0BFF947
:1053F000052805D14846012102F0B9F9052849D10F
:105400004846012102F0B3F908B1092718E04FF42A
:10541000867004210422302302F069F82A4A05210B
:10542000064602F0A9F9002001213246A6F82D0017
:1054300030614FF6FF70F082484602F0A2F907276C
:10544000484601214FF0010802F091F905281DD1CD
:105450004846012102F09AF949463A46064602F0CA
:105460009AF9A88886F82C80394600223085D5F82C
:105470000600F0606889B08468887084687886F86F
:1054800026004846002602F08BF900E0242630462C
:10549000BDE8F88348460021002602F077F9A98884
:1054A00000220185D5F80610C16069898184698868
:1054B0004184697880F826104846032102F075F986
:1054C000E5E700BF105D41205108030070B51446A8
:1054D0000D46064600F030FA08B12A2004E03046B6
:1054E0002946224602F066F9C0B270BD0349B0F504
:1054F000057F18BF00210846704700BF355A001CC1
:1055000010B504461148417B01290CD1807B9042A3
:1055100018BF002807D10E4B114620461A4640F20C
:10552000D73302F043F8FA4850F8240060B190F8FD
:10553000C510012908D1002180F8C5104FF4803032
:10554000BDE8104002F0D2B810BD00BF1D404120A0
:10555000A77A001CF8B50F46054601F0A5FF0446E2
:10556000F44850F82560D6B1B6F8920020F010004B
:1055700067F30410A6F89200284602F020F967B1FC
:10558000284602F021F996F8A60030B128463146A7
:105590000022002700F0D6FA02E0002700E00C27E6
:1055A000204601F08BFF3846F8BD00BF2DE9F041E1
:1055B000304D0446884695F82200FF280AD002F0B4
:1055C00008F995F822100222C90002FA01F10843F5
:1055D00002F004F995F82300FF280AD002F0F9F848
:1055E00095F823100222C90002FA01F1084302F0E3
:1055F000F5F801F059FF0646D54850F82470A7B1D8
:1056000007F12C00414601F054FFB7F8920040F03A
:105610000800A7F89200204602F0D6F82046394646
:10562000012200F08FFA002400E00C24304601F043
:1056300045FF95F82200FF280AD002F0CAF895F835
:1056400022100222C90002FA01F1884302F0C6F8D2
:1056500095F82300FF280AD002F0BBF895F8231034
:105660000222C90002FA01F1884302F0B7F820468D
:10567000BDE8F0817446412058B1064990F8A20077
:105680009422498810FB02100349425A42F020023A
:1056900042527047AC574120028041202DE9F0472B
:1056A000DFF8489559F82050B5B10F468246284694
:1056B0000121164602F015F895F8A300022813D12F
:1056C000B5F892003D220121000658BF162250462F
:1056D000BDE8F04702F087B8D448D54940F2CB3254
:1056E000BDE8F04701F0DBBE02F082F88046B5F875
:1056F0008A00696F0130A5F88A00A86D084420F07F
:105700007040A865504602F078F88249C0B276B180
:1057100001EB4000A97E40784418FEF755FD00F0EB
:1057200003002044FF2828BFFF20A87641E011F89D
:10573000102095F8C330FF261A44FF2A28BF3246AE
:10574000AA762A6EBB1AD21B23F0704422F0704254
:10575000B4F1006F88BF5442012C10DB01EB400014
:105760004778FEF731FD00F00300A10A38444843B2
:10577000A97E51FA80F0FF2838BF0646AE76B5F80C
:105780008210686F06314843844207DD012085F8A6
:10579000C5004FF4803001F0D1FF0AE095F8C50054
:1057A000012806D1002085F8C5004FF4803001F0B3
:1057B0009DFF95F8BB0068B159F82A6096F8A700DC
:1057C000311891F9AE007F281CBF91F9B61011F184
:1057D000010218D195F8BA0020B1FF281CBF01388A
:1057E00085F8BA00B5F89200C00501D4012204E0A2
:1057F000286EE96E421A18BF012250464146BDE8A4
:10580000F04701F0FFBFB0EB0109D8BF4FF000092E
:1058100096F8C00096F8C17090B101281AD00228FD
:1058200025D0FF2847D196F8BC205FFA89F1914234
:105830003FD896F8BE200027914288BF01273DE05F
:1058400096F8BE2096F8BF305FFA89F11A448A4272
:1058500016D330E096F8BE2096F8BF305FFA89F193
:10586000D21A8A4216DD002F4AD001214BE096F869
:10587000BC2096F8BD305FFA89F1D21A8A421ADD4F
:10588000012F06BFB6F89E1001310121A6F89E1027
:10589000012713E096F8BC2096F8BD301A448A42DE
:1058A00009D2022F06BFB6F89E1001310121A6F8D9
:1058B0009E10022702E00021A6F89E10B6F89C1068
:1058C000B6F89E2086F8C1708A4205D8FF287FF47A
:1058D00081AFFF2F3FF47EAF4FEA0A20FF22022361
:1058E000011D40F2162001F002FE477080F8009082
:1058F00001F057FE002086F8C070A6F89E0069E708
:10590000B6F89E100131A6F89E100027D6E700BF1A
:105910006C5D4120DCCE0500B44951F8200030B167
:1059200090F8A3000138B0FA80F0400970470020D9
:10593000704700BF6C5D4120AC4951F8200028B190
:1059400090F85600002818BF0120704700207047CB
:105950006C5D41202DE9F041334D0446884695F8B1
:105960002200FF280AD001F034FF95F8221001220E
:10597000C90002FA01F1084301F030FF95F8230055
:10598000FF280AD001F025FF95F823100122C90055
:1059900002FA01F1084301F021FF01F085FD0646FE
:1059A000924850F82470CFB1B86A28B1C148C249B2
:1059B00040F2792201F073FDB7F89200C7F8288011
:1059C00040F00800A7F89200204601F0FDFE2046B6
:1059D0003946012200F0B6F8002400E00C243046DD
:1059E00001F06CFD95F82200FF280AD001F0F1FECD
:1059F00095F822100122C90002FA01F1884301F052
:105A0000EDFE95F82300FF280AD001F0E2FE95F89C
:105A100023100122C90002FA01F1884301F0DEFEE1
:105A20002046BDE8F08100BF74464120407A001C4A
:105A3000A77A001C2DE9F041140A0746984615463E
:105A40000E46204601F0E3FE0D4951F8241059B1ED
:105A50000089328882420AD3092C05D891F898002F
:105A600000F00300032802D10020BDE8F081384691
:105A700031462A464346BDE8F04101F0CDBE00BFA5
:105A8000105D41202DE9F0471E4614460F46814621
:105A900001F00AFDDFF854A180465AF829504DB1B3
:105AA00095F8560040B1844A002140F2123301F0CB
:105AB0007DFD20E00C2633E00A98DDE90821A5F8F9
:105AC00054000120A5F84E20B20085F85600A00031
:105AD000A5F84C00B800A5F880004801C5E91120E0
:105AE000686FB0EB860F06D995F8A810022902D38B
:105AF000484601F096FE95F8A300002685F8506010
:105B000070B901F075FE04465AF8290000210026FC
:105B100001F0E7FD95F8A2002146012201F072FE96
:105B2000404601F0CBFC3046BDE8F0872F4951F8E4
:105B3000200028B190F8A300023818BF0120704758
:105B4000002070472DE9F047054691F8A300002892
:105B500049D1B1F892000E46C00744D096F8C20071
:105B6000002840D02148144650F8258001F040FE1E
:105B700096F856108146B06D012902D196F8501062
:105B800089BBA0EB090121F07042716F8A422AD9CA
:105B9000B2FBF1F7B6F88A204FF6FF7CBBB29A420F
:105BA00008BF67441FFA87FA924509D34148424922
:105BB00040F25A2201F073FCB6F88A20B06D716F82
:105BC00001FB1A00D21B0021A6F88A2020F07040A9
:105BD000B065404601F085FD284649462246BDE8AD
:105BE000F04701F00FBEBDE8F08700BF6C5D4120BB
:105BF000182804BF06487047012804BF03487047AF
:105C000008B9044870470020704700BF6553001C66
:105C1000CD54001C8553001C184951F8200038B1A0
:105C2000018D29B1B0F85200814218BF01F0FEBDCC
:105C3000704700BF2DE9F04115460E46074601F0BA
:105C400033FCDFF83880044658F8271089B191F802
:105C5000570040B1088D18B101F0E8FD58F8271041
:105C60000D854E8505E0384631462A46012301F070
:105C7000E2FD2046BDE8F04101F020BC005E41207D
:105C8000B0B50B4CA17F81B191FAA1F2B2FA82F5C5
:105C900030B90848084940F2362201F000FCA17FE3
:105CA0000120A84021EA0000A0770020B0BD00BF7D
:105CB00020474120407A001CA77A001C10B500EB59
:105CC000C00057490C1894F83B0001280AD194F8F9
:105CD0003A00062806D114F83C0F18B101F0B0FDC7
:105CE0000020207010BD00BF10B54D4900200022DB
:105CF000022A08BF10BD02EBC2030B4493F83A40DE
:105D00000CB9188758630132F2E700BFB0B51D46E1
:105D10000C46FFF7E9FF41F20100854206D120461B
:105D200041F20101BDE8B040FEF764BB0A49002022
:105D30005D280ED031F83020AA4201D00130F7E7BB
:105D400001EBC000426822B120462946BDE8B040C0
:105D500010470020B0BD00BF84C50500B0B5304C71
:105D600094F84C5035B1E47C022C03D14C7B0CB13F
:105D70008C7B1CB1BDE8B04001F067BD0020B0BD18
:105D80000548006828B190F8481011B990F849000A
:105D900000B1704701F05EBD045D412009B10223EE
:105DA0000B7002280FD81D4B022853F8301003EB5C
:105DB000C0035B681160536005D0012804D000BBAC
:105DC0001848407910B37047154890F82A3003F00E
:105DD00001031943117090F82C3003F0010341EADC
:105DE0004301117090F82D3003F0010341EA830163
:105DF000117090F82B0000F0010041EAC000107013
:105E0000704709A20221812301F0D0BB080E40EAAD
:105E1000032000F0FB00D070704700BF6CC8050085
:105E2000606341201D4041206C6D5F706174636848
:105E30002E63000041F20511884204BF04487047F8
:105E400040F2015188420CBF02480020704700BF59
:105E50000D5D001C5D5D001C70B5054640780C466C
:105E6000182812D1AD49200A51F8206096F8360062
:105E700001280AD1204601F053FB322805D096F8BC
:105E80003C0002281CBF002070BD28462146BDE80A
:105E9000704001F0E4BC00BFF8B506469F480D0A0B
:105EA0000C4650F82570084601F03AFB1F280DD02B
:105EB00025280ED197F8360058B997F8393028467A
:105EC0000B21232201F0D0FC0020F8BD002087F830
:105ED0007A0130462146BDE8F84001F0CABC00BF57
:105EE000B0B501F0E1FA374D0446284601F02BFC2D
:105EF00010B101F09CFBF8E72046BDE8B04001F08E
:105F0000DDBA00BF2F480021C0E90011704700BF73
:105F1000F0B585B06E460546304601F0AFFC01F0A5
:105F2000C3FA284F0446384601F00DFC58B101462B
:105F30000079A84203D1084601F079FBF3E7304627
:105F400001F0B7FAEFE7009818B11E48694601F072
:105F50009AFC204601F0B2FA05B0F0BDB0B501F0F0
:105F6000A3FA0446174801F0EEFB0546204601F06F
:105F7000A5FA2846B0BD00BFF8B5054611480C4645
:105F800001F087FB042816D81C20002101F0E6FA56
:105F9000064601F089FA07460A48314601F089FAB7
:105FA000384601F08BFA3571701D21461422BDE888
:105FB000F84001F0F1BA280222210130BDE8F84092
:105FC00001F066BC08424120F8B5054653480C0A6A
:105FD00050F82470084601F0A3FA192807D80121C7
:105FE00001FA00F01A49084201D00020F8BD2878D3
:105FF00000F0010397F8360087F8393001281CD1EA
:1060000005F10906304601F048FC142817D3287A18
:10601000022814D207F50A7031460A2201F042FC28
:1060200069682A7A2046334601F041FC287A002824
:1060300018BF012087F84C02D7E7242202E097F826
:1060400039301E2220463C2101F00EFCCDE700BF76
:106050000100C003F8B5064630480D0A0C4650F85A
:106060002570084601F05CFAA0F11601042915D349
:10607000A0B12E280DD11A48342115FB0100407A19
:1060800028B197F8360010B93078C0071FD1F088D2
:1060900050B1307800F0010087F8390030462146D1
:1060A000BDE8F84001F008BC1D482146026840F2F6
:1060B0000460904730781721122200F0010328462F
:1060C00001F0D2FB2046202101F0FBFB05E0284631
:1060D00017212322012301F0C7FB0020F8BD00BFD8
:1060E000685C412070B505460C46080A0B4951F81A
:1060F0002060204601F014FA322809D196F83600C3
:10610000012805D106482146026840F20460904704
:1061100028462146BDE8704001F0D8BB605C4120B4
:1061200050444120074900280A6802F000420A60F2
:10613000054A04BF44F22012C0F20052086810431E
:10614000086070477040085060080001A24A0021B2
:10615000072904D05356834201DA0131F8E7B848E1
:106160004170704710B50848B54C016821F0100126
:10617000016094F90300FFF7E9FF6078964908563B
:10618000BDE8104000F0D0BAE0400850F8B5F44F38
:106190000446F44A0D467878B978165C39B1284639
:1061A00000F028FDB878B0FA80F0470900E0012738
:1061B00070B200F023F8021F87F00101002D18BF14
:1061C0000125B2FA82F25209114029400844C1B2B5
:1061D0002046BDE8F840FEF7EBB800BF704700006E
:1061E000044805A10068C0F34100032808BF02204D
:1061F000085C70475028085001000200002100F0A0
:10620000DDBC000010B500F0BFF9D548417A002987
:106210006BD16F496F4A40F2FF33C1F800210A6821
:1062200042F010020A600A6822F080720A600A686E
:1062300022F080020A60D1F8CC2042F08062C1F8DE
:10624000CC20D1F8D4206FF39322C1F8D420D1F818
:10625000D42042F48032C1F8D420D1F8D4209A431B
:10626000C1F8D420D1F8D42042F48072C1F8D420EF
:10627000D1F8D8206FF39322C1F8D820D1F8D820D4
:1062800042F48032C1F8D820D1F8D8206FF3090247
:10629000C1F8D820D1F8D82042F4A072C1F8D82093
:1062A000A622C1F8DC20D1F8DC2022F47062C1F80B
:1062B000DC20D1F8DC2042F4C062C1F8DC20D1F847
:1062C000DC2022F47042C1F8DC20D1F8DC2042F45A
:1062D0002042C1F8DC200A6C42F080020A64D1F846
:1062E000E02022F00402C1F8E02040789D490856E1
:1062F00000F01AFA394C3A483B49404A2060394884
:10630000C0F8EC133949C0F8F4133949C0F8F81350
:106310003849C0F8FC1340F25571C0F800143649F2
:106320000A60374A4A60374A8A60374ACA600D2293
:10633000D4F8901362F305013722C4F89013D0F813
:10634000A81062F305015022C0F8A810D0F8A810D8
:1063500041F48051C0F8A810D0F8A81041F40051C1
:10636000C0F8A810016862F317410160016862F388
:10637000070140220160D4F8081462F30D010B22DA
:10638000C4F80814416862F30E2103224160416899
:1063900062F306014160606820F40050606060684C
:1063A000800405D519481A4940F25D5201F077F88A
:1063B000606840F4005060606068800448BF10BDB1
:1063C0001248134940F26252BDE8104001F067B82C
:1063D00000400850555555689479001C70000950CC
:1063E000001020208C0409504000C00840053C00EB
:1063F0005003500055075000900809500709090044
:10640000030507000309A81C03002817407A001C95
:10641000447A001C10B50446072001F05CFABC4A1F
:10642000C10F5172C0F30660907008B1FEF7F4FD21
:10643000FFF7E8FE2046BDE8104000F003B800BFBB
:106440000440412070B596B0044601208DF8070045
:10645000072001F040FA05463C483D49C4E90810D0
:10646000112084F82C003B48606145F3074000F0A0
:106470005BF93949A64E84F82D0021603749307107
:10648000280C0206A1620021B2F1206F31704FEAA0
:10649000152104DD9F4A136843F008031360F07070
:1064A00040B2F1723572FFF751FE2E496AB20020F8
:1064B000072804D00B56934201DA0130F8E7307315
:1064C00029482A492C4A2D4BC4E906102949284855
:1064D000C4E90113C4E90320002102A8282903D03C
:1064E0004A0042540131F9E728216FF04E02502949
:1064F00004D002EB410343540131F8E7204802A9DC
:10650000502201F0EDF91F4E04F12E050DF10701A7
:106510003A202A463368984708B1D820287004F1F9
:106520002F0533680DF107013B202A46984708B133
:10653000C4202870303433680DF107013C20224616
:10654000984708B1BA20207016B070BD2367001CB0
:106550001F67001C916A001C1D67001C6969001CF4
:10656000044041209479001C2567001C256A001C0A
:106570004574001CDD61001C516B001CF56A001C99
:1065800000814120DC47412029480121E44B016082
:1065900028490A6822F4F0620A600A6842F4A0629C
:1065A0000A604A681A40244B4A604A681A43234BDF
:1065B0004A604A6B1A40224B4A634A6B1A434A6349
:1065C000D04A527A1AB94A6B42F020624A631D4996
:1065D0000A1D42651C4A8265C1651C491D4A016647
:1065E0001B4941661B318266C1661B4901671B4915
:1065F00041671B4981671B49C1671B49C0F880106F
:106600001A49C0F884101A49C0F888101949C0F80E
:106610008C101949C0F890101849C0F89410184906
:10662000C0F898104FF48E61C0F89C10704700BFFE
:106630002C41085024280850A0823A00FCFFF3F0B7
:1066400001000800FCEFFF00FDCFFF000500010086
:106650001DB0020037C003001580FF00D5FFFA000F
:106660008A9FF600518FF40050DFF600A1CFFE00A4
:106670004E300C0048511D0065122F006FB33D00D5
:106680002CF4450010B5A1499F4AA24BA04C0A60CA
:1066900002CA994208BF1446205C10BDB0B5994D9E
:1066A0000229A97168710BD104461A480B2C09DB29
:1066B000016841F0080101602046FFF79FFD12E0EC
:1066C000022020E095F908100B290FDB0121297029
:1066D000016821F0080101600A2000F051F920460C
:1066E000012100F09FF9287100200CE0026822F0DF
:1066F0000802026000202870074890F82D002871D9
:10670000081B18BF0120E9790143E971B0BD00BF42
:1067100004404120E0400850E847412070470020F5
:106720007047704740B270472DE9F041744E0546FE
:1067300056F8080C0B2D10DB40F0100046F8080C42
:1067400030686FF39A403060306840F02E703060EF
:106750002846FFF753FD80462AE020F01000694FDD
:10676000002D46F8080C4FF00000C8BF0120397812
:106770008000012908BF0A20042DC8BF0A2000F0AC
:10678000FFF82846012100F04DF98046F06A20F01C
:10679000FC00F062F06A40EA8800F062B87838B92C
:1067A00030686FF39A403060306840F0217030609C
:1067B0002846FFF723FDDFF84CC153499CF8092018
:1067C00052B1524F0C68534B3960514F9C420744B1
:1067D000084408BF071D01E04FA31F183878D1F8FF
:1067E000DC3023F07C03C1F8DC30D1F8DC3043EA44
:1067F0008000C1F8DC006AB1D1F8DC000D2D20F07A
:106800007060C1F8DC0005D0D1F8DC0040F02060F9
:10681000C1F8DC009CF8020000286DD00D2D69D174
:106820009CF80A00002865D000203D4B7064D1F828
:10683000A80020F4F060C1F8A800D1F8A80040F446
:106840008060C1F8A800D1F8AC0000EA0300354B25
:10685000C1F8AC00D1F8AC0040EA0300C1F8AC00CC
:106860005AB9D1F8DC00304A1040C1F8DC00D1F848
:10687000DC0040F07E00C1F8DC004FF4805030496D
:10688000C6F8980042F20100C6F89C002748C6F8F6
:10689000A0002748C6F8A4002648C6F8A800264845
:1068A000C6F8AC002548C6F8B0001930C6F8B410D8
:1068B000C6F8B8002348C6F8BC002348C6F8C00094
:1068C0002248C6F8C4002248C6F8C8002148C6F8C5
:1068D000CC002148C6F8D0002048C6F8D400204893
:1068E000C6F8D8001F48C6F8DC0040F2C440C6F81D
:1068F000E00001E0FFF748FE4046BDE8F08100BF40
:10690000E8400850044041207C27085000404120C6
:10691000107A001C3412CDAB0004070A121F1F1F8F
:106920000F7C80FF0001100080FFF3F000D0FF001B
:10693000F71FFF00EDCFFE00EF8FFF0004100100F6
:106940001BF00100FCFFFD00BF0FFA0088FFF700FD
:106950008B2FFB00F7BF0500DC4017001B622C00EB
:1069600068733F0065C44A000448016841F00101B2
:1069700001600168C906FCD5704700BF3C000450A7
:106980001F490A280A6822F006020A600A6822F0F3
:1069900001020A604A6822F478424A604A6822F496
:1069A00080624A6010D0042814D010BB086840F000
:1069B00002000860086840F001000860486840F480
:1069C00000604860486812E0086840F00400086011
:1069D000086804E008680860086840F00100086082
:1069E000486840F478404860486840F480604860F7
:1069F000704704A004A140F2A63200F076BF00BFA9
:106A0000502808503000000072665F74785F706F25
:106A10007765725F62617369635F636F6E666967F2
:106A200000000000B0B50C4605460B2805DB2846E3
:106A30002146BDE8B04000F0C1B8FFF7D1FBC0EB84
:106A400000102B4901EB40000021102907D010F95C
:106A500011207F2A05D0AA4204DA0131F5E710217E
:106A600000E00139CAB2EDB2B4FA84F410F8123081
:106A700064095B1B18BF0123002A18BF01222340B1
:106A80001A40891AC9B200EB41004078B0BD00BF7E
:106A9000B0B50D460446FFF7A3FB012D15D14549BE
:106AA00091F908100B2910DAC0EB0012104901EB24
:106AB00042030022102A10D003EB42056D78FF2D0F
:106AC0000BD0A5420BD00132F4E7601C072C04D890
:106AD0000138FBD14648005D07E0002005E0C0EB2F
:106AE000001001EB400010F8120040B2B0BD00BF32
:106AF0009B79001C70B52F4D0446A87818B120462C
:106B0000FDF706FBA872687800B32B4E95F90B20B1
:106B1000315691421ADD01386870C0B23056FFF725
:106B200003FE68783056FFF769FB01462046FDF703
:106B30003FFC687895F90B2000233156B0FA80F0BD
:106B400040099142D8BF0123184370BD012070BD98
:106B500070B5184D0446A87818B12046FDF7D8FA4C
:106B6000A8726878062822D8134E95F90820315665
:106B700091421CDA013068703056FFF7D5FD687815
:106B80003056FFF73BFB01462046FDF711FC6878C5
:106B900095F908200023315691424FF00001A8BF1B
:106BA0000121062888BF012343EA010070BD0120AE
:106BB00070BD00BF044041209479001C10B50C4BFF
:106BC0000022082A04D09C5C844202DA0132F8E7F1
:106BD0000024201AB1FA81F118BF012049090840A8
:106BE000D1B2002918BF01210840101AC0B210BD4F
:106BF000187A001C074900280A686FF39A420A6055
:106C00004FF0217208BF4FF02E72086810430860E1
:106C1000704700BFE8400850F0B585B000201C4622
:106C200002AF15460E46022B12A24FF00A01ADF834
:106C30001000CDE9020028BF02243846234600F0A8
:106C400059FE14204FF4006331462A46002C01906F
:106C50000B4810F824000090384608BF4FF400732A
:106C600000F04DFE044610B1204600F04DFE2046D7
:106C700005B0F0BD4B455F4556542564000000004B
:106C8000285005002DE9FF47044601209A4690460A
:106C90000D460DF10E010DF10F028DF80E00244886
:106CA000036886209847DDF83090A8B100208DF861
:106CB0000F00B9F1010F38D1012021462A46434681
:106CC000CDE900A01BA000F0DBFB29A021462A464D
:106CD00000F00BFEBDE8FF879DF80F000028E8D00C
:106CE000204600F016FE0421002211FA80F0002157
:106CF00020F0030707F1200083B241F2091000F0F1
:106D0000F6FB07F11001064600F008FE301D214693
:106D100080E82005022086F80190307006F110000E
:106D200000F001FE304600F0DDFBBDE8FF8700BF4C
:106D3000DC474120727769705F6173736572743AE2
:106D400066696C653A2025732C206C696E65202578
:106D5000642C20706172616D303D25642C7061720D
:106D6000616D313D25642C747970653D25640A00A0
:106D70004153534552540000BCB5194900200DF150
:106D800006020023022810D051F820404CB194F89C
:106D9000AA50972D05D3B4F9A83093FBF5F401233D
:106DA00000E0002414540130ECE7BBB141F20910BB
:106DB00006210022A42300F09AFB044630201A4941
:106DC0004F222070BDF8060001F50E71A4F80100F5
:106DD000E01C00F0E1FB204600F0E3FBBCBD00BF7F
:106DE00098474120B0B50F4C0A2020700A2000F0CF
:106DF00072FD632804D80420042500F06CFD257082
:106E00000949C1F89402B0BD10B5064C207800F0D5
:106E100062FD28B1207800F05EFD0349C1F89402BC
:106E200010BD00BF34404120D8674120FFF758B85B
:106E3000F8B5054600F038FB164E044629463046A4
:106E400000F076FD18B11348294600F076FD0021C8
:106E50008E48366876B172686B689F1A27F0704763
:106E6000874207D8934203D132892B89934201D9B3
:106E70003146EEE7074819B12A4600F063FD04E009
:106E8000294600F064FD00F067FD2046BDE8F840AB
:106E900000F014BBC46A41202DE9FF47DFF8E09100
:106EA00001A8D9F8007000F05CFDDFF8D88198F8EF
:106EB0002F00FF280AD000F08CFC98F82F10082231
:106EC000C90002FA01F1084300F088FCD7B1D9F8F3
:106ED0001400B8B17968019A8B1A511A23F07043E3
:106EE00021F07041B3F1006F88BF4B426649C27E0A
:106EF000097811448B4205DC0021C9F81410016A9D
:106F000001B18847002F00F0A38038897968A0F587
:106F10008762B2F1FF3F05DC481E02F2712220F0C9
:106F20007041F6E70198594CA2460B1A23F07043C2
:106F3000A34206D881422FD1BDF8080082420846FC
:106F40002ADA484600F0FFFB09F1180501462846F9
:106F500000F0AFFA4C4C4E4ED9F80070002F77D0AD
:106F6000207879685346081A81190198421A22F04C
:106F70007042524510D821F07041814204D13989C4
:106F8000BDF808208A4207D9484600F0DCFB0146DC
:106F9000284600F08EFADFE73B496FF0704209782F
:106FA00051407A6811440A1A22F07042524508D8BA
:106FB00021F0704188424BD13889BDF808108842D1
:106FC00046D8484600F0BFFB0546D9F8140010B17A
:106FD000016A01B18847E869C9F8145020B320203C
:106FE000294600F0C3FCE969284688472949DFF8AB
:106FF000ACC000209422284C4D888E88761B96FBCE
:10700000F2F7C6B2B7420FDD16FB02462346775BA6
:10701000FBB29CF800709F4204D0AB5B23F0FF03EF
:107020003B44AB530130E7E7D9F8000080B1D9F811
:10703000141040684968401A6FF0784120F07040A1
:10704000884205D31E4916A04FF4897200F027FA32
:10705000D9F8180008B100F08EFC00F091FC98F807
:107060002F00FF280AD000F0B4FB98F82F10082258
:10707000C90002FA01F1884300F0B0FBBDE8FF87C8
:10708000D86A412074464120786A4120FEFFFF07FC
:10709000010000F0AC5741201A80412008404120F7
:1070A0004153530080B540B1817EFF2905D1044A88
:1070B00000214FF4957300F079FA002080BD00BFE5
:1070C0007F7A001CF8B53F4D0446A87FFF2809D001
:1070D00000F07FFBA97F0822C90002FA01F10843F2
:1070E00000F07CFB384E96F8020120B93748384949
:1070F000A22200F0D4F906EB04172001354A17F854
:107100000C1F105A69B100F03000302809D106EB8D
:1071100004114B685BB120018968042230589847FC
:107120000AE02A482A49C32200F0B9F928E0274892
:107130002749B22200F0B3F996F80001A04202BF3D
:10714000601C00F00F0086F800010020A97F387055
:1071500096F80201FF29A0F1010086F8020111D082
:1071600000F037FBA97FF022C9008A40904396F8CF
:1071700002211201D2B202FA01F1084300F02EFB03
:1071800096F80201C0B248B101280AD196F8000170
:10719000013000F00F0086F8010102E0402000F00D
:1071A000A5FAA87FFF2808BFF8BD00F012FBA97F51
:1071B0000822C90002FA01F18843BDE8F84000F056
:1071C0000DBB00BF74464120086B4120407A001C73
:1071D0008F7A001C0080412001A000F051B900BF4F
:1071E000656E61626C65204C43505520322E2E0036
:1071F00048494448016100F5032141617321C160A0
:107200004FF480418160816841F408618160816848
:1072100041F410718160816841F001018160016871
:107220008907FCD501214160816821F0010181605D
:10723000704700BF80B500F0A8FB3248012133221F
:107240004160816821F0010181602F4901612F496E
:107250004161C26044F210028260826842F40862B6
:107260008260826842F410728260826842F0010299
:10727000826002689207FCD501224260826822F097
:1072800001028260224A026100F5012242614FF44C
:107290000072C26044F210028260826842F40862A6
:1072A0008260826842F410728260826842F0010259
:1072B000826002689207FCD5012201F5C05142604C
:1072C000826822F001028260124A026141617321E8
:1072D000C16044F210018160816841F408618160FD
:1072E000816841F410718160816841F00101816021
:1072F00001688907FCD501214160816821F0010105
:10730000816080BD00100050E056412000280850E8
:107310000C4D41203C40412010B52C482C49454A99
:10732000454B464C01602B482B4901602B482C49AA
:1073300001602C482C4901602C482D4901602D48E2
:107340002D4901602D482E4901602E482E490160CB
:107350002E482F4901602F482F4901602F4830499E
:107360000160304830490160304841F60801C0F8FA
:1073700094102F49C0F8A01040F20621C0E9124332
:10738000C0E914214FF480714FF48002C0F89C10C2
:107390000A21C0F8A4104FF40071C0F88C10082125
:1073A000C0E92011026026494FF48062C0E907124B
:1073B00001214FF4C002C0F898204FF48872C165D3
:1073C000C16610214263416610BD00BFC044412028
:1073D00041734100C44441206D724100A4444120E6
:1073E00059734100A044412081744100AC444120C4
:1073F000B1744100A8444120F3744100B4444120D9
:1074000065754100B044412025764100BC444120CF
:107410004B764100B844412051764100CC44412094
:107420007B764100C8444120A97641000C5641209A
:1074300008000400803509A000C041180010404138
:107440004050484870B50C4D0446A87818B1204605
:10745000FCF75EFEA872287B084E68703056FFF776
:1074600063F968783056FEF7C9FE01462046BDE84C
:107470007040FCF79DBF00BF044041209479001C80
:107480004FF2357CC0F2040C604743F2710CC0F23D
:10749000000C604748F6257CC0F2050C604744F6B6
:1074A000097CC0F2050C604740F2DD7CC0F2000CA4
:1074B000604745F6D13CC0F2000C604740F2E57CE5
:1074C000C0F2000C604740F6FD1CC0F2000C6047A3
:1074D00045F6B17CC0F2000C604746F25D0CC0F28C
:1074E000000C604743F20D5CC0F2010C604746F6A9
:1074F000E54CC0F2010C60474BF6E12CC0F2020CE7
:10750000604748F2691CC0F2000C604743F6B13C8A
:10751000C0F2050C604741F67D0CC0F2010C6047DB
:1075200046F6756CC0F2010C604745F2C16CC0F2C2
:10753000000C604745F2696CC0F2000C604749F6E8
:10754000B11CC0F2020C604745F2053CC0F2000CD1
:10755000604744F6D10CC0F2000C604746F6654C1B
:10756000C0F2010C604746F66D2CC0F2010C60477A
:1075700046F2717CC0F2010C604747F2296CC0F200
:10758000010C604747F2C17CC0F2010C604745F234
:10759000416CC0F2000C604740F6212CC0F2000C98
:1075A000604746F6555CC0F2010C604744F6457CE6
:1075B000C0F2050C604745F2653CC0F2040C604720
:1075C00040F6AB2CC0F2000C60474DF6793CC0F29F
:1075D000010C604744F2392CC0F2020C604749F2BA
:1075E0000D4CC0F2020C60474FF26D7CC0F2010CF2
:1075F000604748F22D6CC0F2010C60474FF28D1CC1
:10760000C0F2010C60474DF2954CC0F2010C60478E
:107610004DF2A50CC0F2010C60474EF6751CC0F28D
:10762000010C604746F6C96CC0F2010C604746F693
:10763000090CC0F2010C604749F27D2CC0F2010C2C
:10764000604749F2D92CC0F2010C604745F2994CD1
:10765000C0F2000C604747F2D94CC0F2000C604702
:1076600049F2E54CC0F2010C60474BF6211CC0F218
:10767000010C60474FF2C90CC0F2010C60474EF29A
:10768000293CC0F2010C60474BF6D91CC0F2010C3A
:10769000604745F6894CC0F2000C60474AF6F12C71
:1076A000C0F2010C604746F6855CC0F2010C6047F1
:1076B0004BF2694CC0F2010C604745F2914CC0F2AC
:1076C000000C604746F2292CC0F2000C604740F6DF
:1076D0001D2CC0F2020C604747F2814CC0F2000C36
:1076E000604747F27D0CC0F2050C604745F6897C87
:1076F000C0F2050C604749F2816CC0F2020C604791
:1077000049F2E96CC0F2020C604744F68D7CC0F28D
:10771000050C60474BF6296CC0F2020C604745F639
:10772000653CC0F2050C604745F2593CC0F2020CC2
:10773000604743F2393CC0F2020C604745F6C57C15
:10774000C0F2050C604745F6AD3CC0F2000C604746
:1077500045F2C55CC0F2000C604749F6352CC0F21A
:10776000020C60474BF6B97CC0F2020C604740F255
:10777000451CC0F2030C604740F26D1CC0F2030CC4
:10778000604740F2791CC0F2030C604740F21D1CB8
:10779000C0F2030C604740F2E91CC0F2030C6047E2
:1077A00040F2256CC0F2030C60474EF6950CC0F217
:1077B000020C60474CF6E53CC0F2020C604745F60F
:1077C000011CC0F2030C604748F2454CC0F2030CA8
:1077D000604745F20D7CC0F2000C604745F2297C01
:1077E000C0F2000C604744F6E16CC0F2030C604745
:1077F0004DF21D7CC0F2030C604747F24D1CC0F2F5
:10780000030C604747F2A96CC0F2030C604744F2D6
:10781000BD1CC0F2040C604746F6F93CC0F2030CF4
:10782000604748F2911CC0F2030C604744F6A11C6B
:10783000C0F2000C60474BF6794CC0F2030C604775
:1078400046F2C17CC0F2040C604746F2215CC0F2F3
:10785000040C604747F6A91CC0F2020C604748F2CE
:10786000B96CC0F2040C60474DF2913CC0F2010CBF
:10787000604748F6717CC0F2040C604745F6A12CC5
:10788000C0F2000C604745F6453CC0F2000C604772
:107890004EF6213CC0F2010C604745F6A96CC0F2DF
:1078A000000C604740F2FB1CC0F2050C60474FF231
:1078B0004D2CC0F2010C60474CF2990CC0F2040C44
:1078C00060474DF6A13CC0F2010C60474DF2A91C87
:1078D000C0F2040C604741F6612CC0F2000C604716
:1078E00040F6212CC0F2000C60474DF6E95CC0F276
:1078F000040C604743F2AD2CC0F2050C604743F224
:10790000DD6CC0F2050C604743F6815CC0F2050CEB
:10791000604740F69D2CC0F2000C604740F66F2C8B
:10792000C0F2000C604740F6C52CC0F2000C604766
:1079300045F68D2CC0F2000C604745F6451CC0F2A0
:10794000000C604745F6B52CC0F2000C604745F6C8
:10795000554CC0F2000C604746F2C15CC0F2050C09
:10796000604746F2511CC0F2050C604747F2316C8B
:10797000C0F2000C604746F2CD0CC0F2050C604727
:1079800046F6817CC0F2050C604749F2A10CC0F2BA
:10799000050C60470003060A0D1013EC13EF15F2F7
:1079A00017F61BF71DF81EF920FA22FB24FC27FD11
:1079B0002BFE2FFF34003E7FFFEC11F013F317F77F
:1079C00018FA1BFD1E0025012B022F0337043D7FF3
:1079D000FF000000000000E610F011F912FE130194
:1079E00015041A052006240728082E09340A3E7FAC
:1079F000FF00000000000000595E001C5B7A001CC4
:107A000082000000995E001C567A001CD100000024
:107A1000030508141B1B1F1F0003060A0D0D10137E
:107A200030000000A07A001CC95F001C4F7A001CC7
:107A3000D00000005560001C5E7A001C4A00000067
:107A40004153530072665F70617463682E63004235
:107A50004C42313042004231364200424200424202
:107A600048484848006C635F70617463682E630027
:107A70006C645F61636C5F70617463682E63007334
:107A800063685F6172625F70617463682E63007324
:107A900063685F70726F675F70617463682E630004
:107AA000423242373942006C6C645F7061746368C3
:107AB0002E630000E560001C5C7A001C41000000A1
:047AC0007C270850C7
:0400000500000000F7
:00000001FF
